{
  "contractName": "CoinFlip",
  "abi": [
    {
      "inputs": [
        {
          "internalType": "uint256",
          "name": "_num",
          "type": "uint256"
        },
        {
          "internalType": "address",
          "name": "_player1",
          "type": "address"
        },
        {
          "internalType": "address",
          "name": "_player2",
          "type": "address"
        }
      ],
      "stateMutability": "nonpayable",
      "type": "constructor"
    },
    {
      "anonymous": false,
      "inputs": [
        {
          "indexed": true,
          "internalType": "address",
          "name": "previousOwner",
          "type": "address"
        },
        {
          "indexed": true,
          "internalType": "address",
          "name": "newOwner",
          "type": "address"
        }
      ],
      "name": "OwnershipTransferred",
      "type": "event"
    },
    {
      "anonymous": false,
      "inputs": [
        {
          "indexed": false,
          "internalType": "address",
          "name": "to",
          "type": "address"
        },
        {
          "indexed": false,
          "internalType": "uint256",
          "name": "amount",
          "type": "uint256"
        }
      ],
      "name": "Withdrawal",
      "type": "event"
    },
    {
      "inputs": [],
      "name": "activePlayer",
      "outputs": [
        {
          "internalType": "address",
          "name": "",
          "type": "address"
        }
      ],
      "stateMutability": "view",
      "type": "function"
    },
    {
      "inputs": [],
      "name": "jackpot",
      "outputs": [
        {
          "internalType": "uint256",
          "name": "",
          "type": "uint256"
        }
      ],
      "stateMutability": "view",
      "type": "function"
    },
    {
      "inputs": [],
      "name": "owner",
      "outputs": [
        {
          "internalType": "address",
          "name": "",
          "type": "address"
        }
      ],
      "stateMutability": "view",
      "type": "function"
    },
    {
      "inputs": [
        {
          "internalType": "uint256",
          "name": "",
          "type": "uint256"
        }
      ],
      "name": "participatingPlayers",
      "outputs": [
        {
          "internalType": "address",
          "name": "",
          "type": "address"
        }
      ],
      "stateMutability": "view",
      "type": "function"
    },
    {
      "inputs": [],
      "name": "renounceOwnership",
      "outputs": [],
      "stateMutability": "nonpayable",
      "type": "function"
    },
    {
      "inputs": [],
      "name": "totalPlayers",
      "outputs": [
        {
          "internalType": "uint256",
          "name": "",
          "type": "uint256"
        }
      ],
      "stateMutability": "view",
      "type": "function"
    },
    {
      "inputs": [
        {
          "internalType": "address",
          "name": "newOwner",
          "type": "address"
        }
      ],
      "name": "transferOwnership",
      "outputs": [],
      "stateMutability": "nonpayable",
      "type": "function"
    },
    {
      "inputs": [],
      "name": "winner",
      "outputs": [
        {
          "internalType": "address payable",
          "name": "",
          "type": "address"
        }
      ],
      "stateMutability": "view",
      "type": "function"
    },
    {
      "inputs": [
        {
          "internalType": "uint256",
          "name": "_index",
          "type": "uint256"
        },
        {
          "internalType": "address",
          "name": "_player",
          "type": "address"
        }
      ],
      "name": "insertPlayer",
      "outputs": [],
      "stateMutability": "nonpayable",
      "type": "function"
    },
    {
      "inputs": [],
      "name": "addCollateral",
      "outputs": [],
      "stateMutability": "payable",
      "type": "function"
    },
    {
      "inputs": [],
      "name": "determineActivePlayer",
      "outputs": [],
      "stateMutability": "nonpayable",
      "type": "function"
    },
    {
      "inputs": [],
      "name": "flipCoin",
      "outputs": [],
      "stateMutability": "nonpayable",
      "type": "function"
    },
    {
      "inputs": [],
      "name": "withdrawCollateral",
      "outputs": [],
      "stateMutability": "nonpayable",
      "type": "function"
    },
    {
      "inputs": [
        {
          "internalType": "uint256",
          "name": "_index",
          "type": "uint256"
        }
      ],
      "name": "getPlayer",
      "outputs": [
        {
          "internalType": "address",
          "name": "",
          "type": "address"
        }
      ],
      "stateMutability": "view",
      "type": "function"
    }
  ],
  "bytecode": "0x60806040523480156200001157600080fd5b5060405162001f0438038062001f04833981810160405281019062000037919062000304565b6000620000496200022060201b60201c565b9050806000806101000a81548173ffffffffffffffffffffffffffffffffffffffff021916908373ffffffffffffffffffffffffffffffffffffffff1602179055508073ffffffffffffffffffffffffffffffffffffffff16600073ffffffffffffffffffffffffffffffffffffffff167f8be0079c531659141344cd1fd0a4f28419497f9722a3daafe3b4186f6b6457e060405160405180910390a3508260028190555060025467ffffffffffffffff8111156200010d576200010c620003cd565b5b6040519080825280602002602001820160405280156200013c5781602001602082028036833780820191505090505b50600690805190602001906200015492919062000228565b508160066000815481106200016e576200016d6200039e565b5b9060005260206000200160006101000a81548173ffffffffffffffffffffffffffffffffffffffff021916908373ffffffffffffffffffffffffffffffffffffffff160217905550806006600181548110620001cf57620001ce6200039e565b5b9060005260206000200160006101000a81548173ffffffffffffffffffffffffffffffffffffffff021916908373ffffffffffffffffffffffffffffffffffffffff16021790555050505062000435565b600033905090565b828054828255906000526020600020908101928215620002a4579160200282015b82811115620002a35782518260006101000a81548173ffffffffffffffffffffffffffffffffffffffff021916908373ffffffffffffffffffffffffffffffffffffffff1602179055509160200191906001019062000249565b5b509050620002b39190620002b7565b5090565b5b80821115620002d2576000816000905550600101620002b8565b5090565b600081519050620002e78162000401565b92915050565b600081519050620002fe816200041b565b92915050565b60008060006060848603121562000320576200031f620003fc565b5b60006200033086828701620002ed565b93505060206200034386828701620002d6565b92505060406200035686828701620002d6565b9150509250925092565b60006200036d8262000374565b9050919050565b600073ffffffffffffffffffffffffffffffffffffffff82169050919050565b6000819050919050565b7f4e487b7100000000000000000000000000000000000000000000000000000000600052603260045260246000fd5b7f4e487b7100000000000000000000000000000000000000000000000000000000600052604160045260246000fd5b600080fd5b6200040c8162000360565b81146200041857600080fd5b50565b620004268162000394565b81146200043257600080fd5b50565b611abf80620004456000396000f3fe6080604052600436106100dd5760003560e01c806397248cc11161007f578063dfbf53ae11610059578063dfbf53ae1461022f578063e55ae4e81461025a578063f2fde38b14610297578063f60cdcf6146102c0576100dd565b806397248cc1146101d15780639e816999146101e8578063ad6591ee146101f2576100dd565b80637498878f116100bb5780637498878f1461013b578063799ae223146101645780637fdffd231461017b5780638da5cb5b146101a6576100dd565b806359c153be146100e25780636b31ee01146100f9578063715018a614610124575b600080fd5b3480156100ee57600080fd5b506100f76102eb565b005b34801561010557600080fd5b5061010e61046f565b60405161011b9190611591565b60405180910390f35b34801561013057600080fd5b50610139610475565b005b34801561014757600080fd5b50610162600480360381019061015d919061115a565b6105af565b005b34801561017057600080fd5b506101796107cd565b005b34801561018757600080fd5b50610190610b13565b60405161019d91906113b2565b60405180910390f35b3480156101b257600080fd5b506101bb610b39565b6040516101c891906113b2565b60405180910390f35b3480156101dd57600080fd5b506101e6610b62565b005b6101f0610bf0565b005b3480156101fe57600080fd5b506102196004803603810190610214919061112d565b610db0565b60405161022691906113b2565b60405180910390f35b34801561023b57600080fd5b50610244610def565b60405161025191906113cd565b60405180910390f35b34801561026657600080fd5b50610281600480360381019061027c919061112d565b610e15565b60405161028e91906113b2565b60405180910390f35b3480156102a357600080fd5b506102be60048036038101906102b99190611100565b610e5d565b005b3480156102cc57600080fd5b506102d5611006565b6040516102e29190611591565b60405180910390f35b600560009054906101000a900473ffffffffffffffffffffffffffffffffffffffff1673ffffffffffffffffffffffffffffffffffffffff1661032c61100c565b73ffffffffffffffffffffffffffffffffffffffff1614610382576040517f08c379a000000000000000000000000000000000000000000000000000000000815260040161037990611511565b60405180910390fd5b6000600154146103c7576040517f08c379a00000000000000000000000000000000000000000000000000000000081526004016103be90611451565b60405180910390fd5b6001808190555060006003549050600060038190555061040981600560009054906101000a900473ffffffffffffffffffffffffffffffffffffffff16611014565b7f7fcf532c15f0a6db0bd6d0e038bea71d30d808c7d98cb3bf7268a95bf5081b65600560009054906101000a900473ffffffffffffffffffffffffffffffffffffffff168260405161045c9291906113e8565b60405180910390a1506000600181905550565b60035481565b61047d61100c565b73ffffffffffffffffffffffffffffffffffffffff1661049b610b39565b73ffffffffffffffffffffffffffffffffffffffff16146104f1576040517f08c379a00000000000000000000000000000000000000000000000000000000081526004016104e8906114d1565b60405180910390fd5b600073ffffffffffffffffffffffffffffffffffffffff1660008054906101000a900473ffffffffffffffffffffffffffffffffffffffff1673ffffffffffffffffffffffffffffffffffffffff167f8be0079c531659141344cd1fd0a4f28419497f9722a3daafe3b4186f6b6457e060405160405180910390a360008060006101000a81548173ffffffffffffffffffffffffffffffffffffffff021916908373ffffffffffffffffffffffffffffffffffffffff160217905550565b60025482106105f3576040517f08c379a00000000000000000000000000000000000000000000000000000000081526004016105ea906114f1565b60405180910390fd5b600073ffffffffffffffffffffffffffffffffffffffff168173ffffffffffffffffffffffffffffffffffffffff161415801561065c57503073ffffffffffffffffffffffffffffffffffffffff168173ffffffffffffffffffffffffffffffffffffffff1614155b61069b576040517f08c379a0000000000000000000000000000000000000000000000000000000008152600401610692906114b1565b60405180910390fd5b60005b60068054905081101561076b57600681815481106106bf576106be61177a565b5b9060005260206000200160009054906101000a900473ffffffffffffffffffffffffffffffffffffffff1673ffffffffffffffffffffffffffffffffffffffff168273ffffffffffffffffffffffffffffffffffffffff161415610758576040517f08c379a000000000000000000000000000000000000000000000000000000000815260040161074f90611431565b60405180910390fd5b8080610763906116a2565b91505061069e565b5080600683815481106107815761078061177a565b5b9060005260206000200160006101000a81548173ffffffffffffffffffffffffffffffffffffffff021916908373ffffffffffffffffffffffffffffffffffffffff1602179055505050565b600460009054906101000a900473ffffffffffffffffffffffffffffffffffffffff1673ffffffffffffffffffffffffffffffffffffffff1661080e61100c565b73ffffffffffffffffffffffffffffffffffffffff1614610864576040517f08c379a000000000000000000000000000000000000000000000000000000000815260040161085b90611551565b60405180910390fd5b60005b600680549050811015610947576000600760006006848154811061088e5761088d61177a565b5b9060005260206000200160009054906101000a900473ffffffffffffffffffffffffffffffffffffffff1673ffffffffffffffffffffffffffffffffffffffff1673ffffffffffffffffffffffffffffffffffffffff1681526020019081526020016000205411610934576040517f08c379a000000000000000000000000000000000000000000000000000000000815260040161092b90611411565b60405180910390fd5b808061093f906116a2565b915050610867565b5060005b600680549050811015610a845760076000600683815481106109705761096f61177a565b5b9060005260206000200160009054906101000a900473ffffffffffffffffffffffffffffffffffffffff1673ffffffffffffffffffffffffffffffffffffffff1673ffffffffffffffffffffffffffffffffffffffff16815260200190815260200160002054600360008282546109e791906115c8565b9250508190555060006007600060068481548110610a0857610a0761177a565b5b9060005260206000200160009054906101000a900473ffffffffffffffffffffffffffffffffffffffff1673ffffffffffffffffffffffffffffffffffffffff1673ffffffffffffffffffffffffffffffffffffffff168152602001908152602001600020819055508080610a7c906116a2565b91505061094b565b50600660025442610a9591906116eb565b81548110610aa657610aa561177a565b5b9060005260206000200160009054906101000a900473ffffffffffffffffffffffffffffffffffffffff16600560006101000a81548173ffffffffffffffffffffffffffffffffffffffff021916908373ffffffffffffffffffffffffffffffffffffffff160217905550565b600460009054906101000a900473ffffffffffffffffffffffffffffffffffffffff1681565b60008060009054906101000a900473ffffffffffffffffffffffffffffffffffffffff16905090565b600660025442610b7291906116eb565b81548110610b8357610b8261177a565b5b9060005260206000200160009054906101000a900473ffffffffffffffffffffffffffffffffffffffff16600460006101000a81548173ffffffffffffffffffffffffffffffffffffffff021916908373ffffffffffffffffffffffffffffffffffffffff160217905550565b60003411610c33576040517f08c379a0000000000000000000000000000000000000000000000000000000008152600401610c2a90611491565b60405180910390fd5b6006600081548110610c4857610c4761177a565b5b9060005260206000200160009054906101000a900473ffffffffffffffffffffffffffffffffffffffff1673ffffffffffffffffffffffffffffffffffffffff16610c9161100c565b73ffffffffffffffffffffffffffffffffffffffff161480610d2457506006600181548110610cc357610cc261177a565b5b9060005260206000200160009054906101000a900473ffffffffffffffffffffffffffffffffffffffff1673ffffffffffffffffffffffffffffffffffffffff16610d0c61100c565b73ffffffffffffffffffffffffffffffffffffffff16145b610d63576040517f08c379a0000000000000000000000000000000000000000000000000000000008152600401610d5a90611531565b60405180910390fd5b3460076000610d7061100c565b73ffffffffffffffffffffffffffffffffffffffff1673ffffffffffffffffffffffffffffffffffffffff16815260200190815260200160002081905550565b60068181548110610dc057600080fd5b906000526020600020016000915054906101000a900473ffffffffffffffffffffffffffffffffffffffff1681565b600560009054906101000a900473ffffffffffffffffffffffffffffffffffffffff1681565b600060068281548110610e2b57610e2a61177a565b5b9060005260206000200160009054906101000a900473ffffffffffffffffffffffffffffffffffffffff169050919050565b610e6561100c565b73ffffffffffffffffffffffffffffffffffffffff16610e83610b39565b73ffffffffffffffffffffffffffffffffffffffff1614610ed9576040517f08c379a0000000000000000000000000000000000000000000000000000000008152600401610ed0906114d1565b60405180910390fd5b600073ffffffffffffffffffffffffffffffffffffffff168173ffffffffffffffffffffffffffffffffffffffff161415610f49576040517f08c379a0000000000000000000000000000000000000000000000000000000008152600401610f4090611471565b60405180910390fd5b8073ffffffffffffffffffffffffffffffffffffffff1660008054906101000a900473ffffffffffffffffffffffffffffffffffffffff1673ffffffffffffffffffffffffffffffffffffffff167f8be0079c531659141344cd1fd0a4f28419497f9722a3daafe3b4186f6b6457e060405160405180910390a3806000806101000a81548173ffffffffffffffffffffffffffffffffffffffff021916908373ffffffffffffffffffffffffffffffffffffffff16021790555050565b60025481565b600033905090565b6000808273ffffffffffffffffffffffffffffffffffffffff168460405161103b9061139d565b60006040518083038185875af1925050503d8060008114611078576040519150601f19603f3d011682016040523d82523d6000602084013e61107d565b606091505b509150915081801561109157506000815110155b6110d0576040517f08c379a00000000000000000000000000000000000000000000000000000000081526004016110c790611571565b60405180910390fd5b50505050565b6000813590506110e581611a5b565b92915050565b6000813590506110fa81611a72565b92915050565b600060208284031215611116576111156117a9565b5b6000611124848285016110d6565b91505092915050565b600060208284031215611143576111426117a9565b5b6000611151848285016110eb565b91505092915050565b60008060408385031215611171576111706117a9565b5b600061117f858286016110eb565b9250506020611190858286016110d6565b9150509250929050565b6111a38161166c565b82525050565b6111b281611630565b82525050565b6111c18161161e565b82525050565b60006111d4604a836115b7565b91506111df826117ae565b606082019050919050565b60006111f76027836115b7565b915061120282611823565b604082019050919050565b600061121a6015836115b7565b915061122582611872565b602082019050919050565b600061123d6026836115b7565b91506112488261189b565b604082019050919050565b6000611260601c836115b7565b915061126b826118ea565b602082019050919050565b6000611283601d836115b7565b915061128e82611913565b602082019050919050565b60006112a66020836115b7565b91506112b18261193c565b602082019050919050565b60006112c96020836115b7565b91506112d482611965565b602082019050919050565b60006112ec6014836115b7565b91506112f78261198e565b602082019050919050565b600061130f6000836115ac565b915061131a826119b7565b600082019050919050565b60006113326038836115b7565b915061133d826119ba565b604082019050919050565b6000611355601b836115b7565b915061136082611a09565b602082019050919050565b60006113786017836115b7565b915061138382611a32565b602082019050919050565b61139781611662565b82525050565b60006113a882611302565b9150819050919050565b60006020820190506113c760008301846111b8565b92915050565b60006020820190506113e260008301846111a9565b92915050565b60006040820190506113fd600083018561119a565b61140a602083018461138e565b9392505050565b6000602082019050818103600083015261142a816111c7565b9050919050565b6000602082019050818103600083015261144a816111ea565b9050919050565b6000602082019050818103600083015261146a8161120d565b9050919050565b6000602082019050818103600083015261148a81611230565b9050919050565b600060208201905081810360008301526114aa81611253565b9050919050565b600060208201905081810360008301526114ca81611276565b9050919050565b600060208201905081810360008301526114ea81611299565b9050919050565b6000602082019050818103600083015261150a816112bc565b9050919050565b6000602082019050818103600083015261152a816112df565b9050919050565b6000602082019050818103600083015261154a81611325565b9050919050565b6000602082019050818103600083015261156a81611348565b9050919050565b6000602082019050818103600083015261158a8161136b565b9050919050565b60006020820190506115a6600083018461138e565b92915050565b600081905092915050565b600082825260208201905092915050565b60006115d382611662565b91506115de83611662565b9250827fffffffffffffffffffffffffffffffffffffffffffffffffffffffffffffffff038211156116135761161261171c565b5b828201905092915050565b600061162982611642565b9050919050565b600061163b82611642565b9050919050565b600073ffffffffffffffffffffffffffffffffffffffff82169050919050565b6000819050919050565b60006116778261167e565b9050919050565b600061168982611690565b9050919050565b600061169b82611642565b9050919050565b60006116ad82611662565b91507fffffffffffffffffffffffffffffffffffffffffffffffffffffffffffffffff8214156116e0576116df61171c565b5b600182019050919050565b60006116f682611662565b915061170183611662565b9250826117115761171061174b565b5b828206905092915050565b7f4e487b7100000000000000000000000000000000000000000000000000000000600052601160045260246000fd5b7f4e487b7100000000000000000000000000000000000000000000000000000000600052601260045260246000fd5b7f4e487b7100000000000000000000000000000000000000000000000000000000600052603260045260246000fd5b600080fd5b7f436f696e466c69703a206e6f7420616c6c20706c61796572732068617665207360008201527f74616b656420746865697220636f6c6c61746572616c202d2063616e206e6f7460208201527f20666c697020636f696e00000000000000000000000000000000000000000000604082015250565b7f436f696e466c69703a20706c6179657220697320616c7265616479207061727460008201527f69636970616e7400000000000000000000000000000000000000000000000000602082015250565b7f4e6f6e5265656e7472616e743a205265656e7472790000000000000000000000600082015250565b7f4f776e61626c653a206e6577206f776e657220697320746865207a65726f206160008201527f6464726573730000000000000000000000000000000000000000000000000000602082015250565b7f436f696e466c69703a20616d6f756e7420697320746f6f206c6f772e00000000600082015250565b7f436f696e466c69703a2061646472657373206e6f7420616c6c6f776564000000600082015250565b7f4f776e61626c653a2063616c6c6572206973206e6f7420746865206f776e6572600082015250565b7f436f696e466c69703a20696e646578206973206e6f7420617661696c61626c65600082015250565b7f436f696e466c69703a206e6f742077696e6e6572000000000000000000000000600082015250565b50565b7f436f696e466c69703a206e6f7420612070617274696369706174696e6720706c60008201527f61796572202d2063616e206e6f74206164642066756e64730000000000000000602082015250565b7f436f696e466c69703a206e6f742061637469766520706c617965720000000000600082015250565b7f436f696e466c69703a207061796f7574206661696c6564000000000000000000600082015250565b611a648161161e565b8114611a6f57600080fd5b50565b611a7b81611662565b8114611a8657600080fd5b5056fea264697066735822122011210982e57496a38336076654f80fcea11c0de3fde16bde7066f6a45a443d2664736f6c63430008060033",
  "immutableReferences": {},
  "source": "// SPDX-License-Identifier: MIT\r\n\r\n/*\r\n * This contract works with pseudo-randomness that could be predetermined and exploited by a miner\r\n * For demonstration purposes only.\r\n */\r\n\r\nimport { Context } from \"./Context.sol\";\r\nimport { Ownable } from \"./Ownable.sol\";\r\nimport { NonReentrant } from \"./NonReentrant.sol\";\r\n\r\npragma solidity 0.8.6;\r\n\r\ncontract CoinFlip is Context, Ownable, NonReentrant {\r\n\r\n    uint public totalPlayers;\r\n    uint public jackpot;\r\n    address public activePlayer;\r\n    address payable public winner;\r\n    address[] public participatingPlayers;\r\n    mapping(address => uint) userCollaterals;\r\n\r\n    event Withdrawal(address to, uint256 amount);\r\n\r\n    modifier onlyActivePlayer {\r\n        require(_msgSender() == activePlayer, \"CoinFlip: not active player\");\r\n        _;\r\n    }\r\n\r\n    modifier onlyWinner {\r\n        require(_msgSender() == winner, \"CoinFlip: not winner\");\r\n        _;\r\n    }\r\n\r\n    // @dev This game can be played by any number of users that are set in the constructor.\r\n    constructor(uint _num, address _player1, address _player2) {\r\n        totalPlayers = _num;\r\n        participatingPlayers = new address[](totalPlayers);\r\n        participatingPlayers[0] = _player1;\r\n        participatingPlayers[1] = _player2;\r\n    }\r\n\r\n    function insertPlayer (uint _index, address _player) public {\r\n        require(_index < totalPlayers, \"CoinFlip: index is not available\");\r\n        require(_player != address(0) && _player != address(this), \"CoinFlip: address not allowed\");\r\n        for (uint i = 0; i < participatingPlayers.length; i++) {\r\n            require(_player != participatingPlayers[i], \"CoinFlip: player is already participant\");\r\n        }\r\n        participatingPlayers[_index] = _player;\r\n    }\r\n\r\n    function addCollateral () public payable {\r\n        require(msg.value > 0, \"CoinFlip: amount is too low.\");\r\n        require(_msgSender() == participatingPlayers[0] || _msgSender() == participatingPlayers[1],\r\n            \"CoinFlip: not a participating player - can not add funds\");\r\n        userCollaterals[_msgSender()] = msg.value;\r\n    }\r\n\r\n    function determineActivePlayer() public {\r\n        activePlayer = participatingPlayers[block.timestamp % totalPlayers];\r\n    }\r\n\r\n    function flipCoin() public onlyActivePlayer {\r\n        // ensure that all players have staked something\r\n        for (uint i = 0; i < participatingPlayers.length; i++) {\r\n            require(userCollaterals[participatingPlayers[i]] > 0,\r\n                \"CoinFlip: not all players have staked their collateral - can not flip coin\");\r\n        }\r\n        // fill jackpot\r\n        for (uint i = 0; i < participatingPlayers.length; i++) {\r\n            jackpot += userCollaterals[participatingPlayers[i]];\r\n            userCollaterals[participatingPlayers[i]] = 0;\r\n        }\r\n        // determine winner\r\n        winner = payable(participatingPlayers[block.timestamp % totalPlayers]);\r\n    }\r\n\r\n    function withdrawCollateral() public onlyWinner noReentry { // checks\r\n        uint toWithdraw = jackpot;\r\n        jackpot = 0;                                            // effects\r\n        payout(toWithdraw, winner);                             // interactions\r\n        emit Withdrawal(winner, toWithdraw);\r\n    }\r\n\r\n    function payout(uint _amount, address payable _to) internal {\r\n        (bool success, bytes memory data) = _to.call{value: _amount}(\"\");\r\n        require (success && data.length >= 0, \"CoinFlip: payout failed\");\r\n    }\r\n\r\n    function getPlayer(uint _index) public view returns (address) {\r\n        return participatingPlayers[_index];\r\n    }\r\n\r\n}\r\n",
  "sourcePath": "D:/Documents/Career/IT/BP/CoinFlip/contracts/CoinFlip.sol",
  "compiler": {
    "name": "solc",
    "version": "0.8.6+commit.11564f7e.Emscripten.clang"
  },
  "schemaVersion": "3.4.1",
  "updatedAt": "2021-06-27T16:51:33.070Z",
  "devdoc": {
    "kind": "dev",
    "methods": {
      "owner()": {
        "details": "Returns the address of the current owner."
      },
      "renounceOwnership()": {
        "details": "Leaves the contract without owner. It will not be possible to call `onlyOwner` functions anymore. Can only be called by the current owner. NOTE: Renouncing ownership will leave the contract without an owner, thereby removing any functionality that is only available to the owner."
      },
      "transferOwnership(address)": {
        "details": "Transfers ownership of the contract to a new account (`newOwner`). Can only be called by the current owner."
      }
    },
    "version": 1
  },
  "userdoc": {
    "kind": "user",
    "methods": {},
    "version": 1
  }
}