{
  "contractName": "CoinFlip",
  "abi": [
    {
      "inputs": [
        {
          "internalType": "uint256",
          "name": "_num",
          "type": "uint256"
        },
        {
          "internalType": "address",
          "name": "_player1",
          "type": "address"
        },
        {
          "internalType": "address",
          "name": "_player2",
          "type": "address"
        }
      ],
      "stateMutability": "nonpayable",
      "type": "constructor"
    },
    {
      "anonymous": false,
      "inputs": [
        {
          "indexed": true,
          "internalType": "address",
          "name": "previousOwner",
          "type": "address"
        },
        {
          "indexed": true,
          "internalType": "address",
          "name": "newOwner",
          "type": "address"
        }
      ],
      "name": "OwnershipTransferred",
      "type": "event"
    },
    {
      "anonymous": false,
      "inputs": [
        {
          "indexed": false,
          "internalType": "address",
          "name": "to",
          "type": "address"
        },
        {
          "indexed": false,
          "internalType": "uint256",
          "name": "amount",
          "type": "uint256"
        }
      ],
      "name": "Withdrawal",
      "type": "event"
    },
    {
      "inputs": [],
      "name": "activePlayer",
      "outputs": [
        {
          "internalType": "address",
          "name": "",
          "type": "address"
        }
      ],
      "stateMutability": "view",
      "type": "function"
    },
    {
      "inputs": [],
      "name": "jackpot",
      "outputs": [
        {
          "internalType": "uint256",
          "name": "",
          "type": "uint256"
        }
      ],
      "stateMutability": "view",
      "type": "function"
    },
    {
      "inputs": [],
      "name": "owner",
      "outputs": [
        {
          "internalType": "address",
          "name": "",
          "type": "address"
        }
      ],
      "stateMutability": "view",
      "type": "function"
    },
    {
      "inputs": [
        {
          "internalType": "uint256",
          "name": "",
          "type": "uint256"
        }
      ],
      "name": "participatingPlayers",
      "outputs": [
        {
          "internalType": "address",
          "name": "",
          "type": "address"
        }
      ],
      "stateMutability": "view",
      "type": "function"
    },
    {
      "inputs": [],
      "name": "renounceOwnership",
      "outputs": [],
      "stateMutability": "nonpayable",
      "type": "function"
    },
    {
      "inputs": [],
      "name": "totalPlayers",
      "outputs": [
        {
          "internalType": "uint256",
          "name": "",
          "type": "uint256"
        }
      ],
      "stateMutability": "view",
      "type": "function"
    },
    {
      "inputs": [
        {
          "internalType": "address",
          "name": "newOwner",
          "type": "address"
        }
      ],
      "name": "transferOwnership",
      "outputs": [],
      "stateMutability": "nonpayable",
      "type": "function"
    },
    {
      "inputs": [],
      "name": "winner",
      "outputs": [
        {
          "internalType": "address payable",
          "name": "",
          "type": "address"
        }
      ],
      "stateMutability": "view",
      "type": "function"
    },
    {
      "inputs": [
        {
          "internalType": "uint256",
          "name": "_index",
          "type": "uint256"
        },
        {
          "internalType": "address",
          "name": "_player",
          "type": "address"
        }
      ],
      "name": "insertPlayer",
      "outputs": [],
      "stateMutability": "nonpayable",
      "type": "function"
    },
    {
      "inputs": [],
      "name": "addCollateral",
      "outputs": [],
      "stateMutability": "payable",
      "type": "function"
    },
    {
      "inputs": [],
      "name": "determineActivePlayer",
      "outputs": [],
      "stateMutability": "nonpayable",
      "type": "function"
    },
    {
      "inputs": [],
      "name": "flipCoin",
      "outputs": [],
      "stateMutability": "nonpayable",
      "type": "function"
    },
    {
      "inputs": [],
      "name": "withdrawCollateral",
      "outputs": [],
      "stateMutability": "nonpayable",
      "type": "function"
    },
    {
      "inputs": [
        {
          "internalType": "uint256",
          "name": "_index",
          "type": "uint256"
        }
      ],
      "name": "getPlayer",
      "outputs": [
        {
          "internalType": "address",
          "name": "",
          "type": "address"
        }
      ],
      "stateMutability": "view",
      "type": "function"
    },
    {
      "inputs": [
        {
          "internalType": "address",
          "name": "_token",
          "type": "address"
        },
        {
          "internalType": "address",
          "name": "_from",
          "type": "address"
        },
        {
          "internalType": "address",
          "name": "_to",
          "type": "address"
        },
        {
          "internalType": "uint256",
          "name": "_amount",
          "type": "uint256"
        }
      ],
      "name": "safeTransferFrom",
      "outputs": [],
      "stateMutability": "nonpayable",
      "type": "function"
    }
  ],
  "bytecode": "0x60806040523480156200001157600080fd5b506040516200241238038062002412833981810160405281019062000037919062000304565b6000620000496200022060201b60201c565b9050806000806101000a81548173ffffffffffffffffffffffffffffffffffffffff021916908373ffffffffffffffffffffffffffffffffffffffff1602179055508073ffffffffffffffffffffffffffffffffffffffff16600073ffffffffffffffffffffffffffffffffffffffff167f8be0079c531659141344cd1fd0a4f28419497f9722a3daafe3b4186f6b6457e060405160405180910390a3508260028190555060025467ffffffffffffffff8111156200010d576200010c620003cd565b5b6040519080825280602002602001820160405280156200013c5781602001602082028036833780820191505090505b50600690805190602001906200015492919062000228565b508160066000815481106200016e576200016d6200039e565b5b9060005260206000200160006101000a81548173ffffffffffffffffffffffffffffffffffffffff021916908373ffffffffffffffffffffffffffffffffffffffff160217905550806006600181548110620001cf57620001ce6200039e565b5b9060005260206000200160006101000a81548173ffffffffffffffffffffffffffffffffffffffff021916908373ffffffffffffffffffffffffffffffffffffffff16021790555050505062000435565b600033905090565b828054828255906000526020600020908101928215620002a4579160200282015b82811115620002a35782518260006101000a81548173ffffffffffffffffffffffffffffffffffffffff021916908373ffffffffffffffffffffffffffffffffffffffff1602179055509160200191906001019062000249565b5b509050620002b39190620002b7565b5090565b5b80821115620002d2576000816000905550600101620002b8565b5090565b600081519050620002e78162000401565b92915050565b600081519050620002fe816200041b565b92915050565b60008060006060848603121562000320576200031f620003fc565b5b60006200033086828701620002ed565b93505060206200034386828701620002d6565b92505060406200035686828701620002d6565b9150509250925092565b60006200036d8262000374565b9050919050565b600073ffffffffffffffffffffffffffffffffffffffff82169050919050565b6000819050919050565b7f4e487b7100000000000000000000000000000000000000000000000000000000600052603260045260246000fd5b7f4e487b7100000000000000000000000000000000000000000000000000000000600052604160045260246000fd5b600080fd5b6200040c8162000360565b81146200041857600080fd5b50565b620004268162000394565b81146200043257600080fd5b50565b611fcd80620004456000396000f3fe6080604052600436106100e85760003560e01c806397248cc11161008a578063dfbf53ae11610059578063dfbf53ae14610263578063e55ae4e81461028e578063f2fde38b146102cb578063f60cdcf6146102f4576100e8565b806397248cc1146101dc5780639e816999146101f3578063ad6591ee146101fd578063d9fc4b611461023a576100e8565b80637498878f116100c65780637498878f14610146578063799ae2231461016f5780637fdffd23146101865780638da5cb5b146101b1576100e8565b806359c153be146100ed5780636b31ee0114610104578063715018a61461012f575b600080fd5b3480156100f957600080fd5b5061010261031f565b005b34801561011057600080fd5b506101196104a3565b60405161012691906119c6565b60405180910390f35b34801561013b57600080fd5b506101446104a9565b005b34801561015257600080fd5b5061016d6004803603810190610168919061148a565b6105e3565b005b34801561017b57600080fd5b50610184610801565b005b34801561019257600080fd5b5061019b610b47565b6040516101a89190611770565b60405180910390f35b3480156101bd57600080fd5b506101c6610b6d565b6040516101d39190611770565b60405180910390f35b3480156101e857600080fd5b506101f1610b96565b005b6101fb610c24565b005b34801561020957600080fd5b50610224600480360381019061021f919061145d565b610de4565b6040516102319190611770565b60405180910390f35b34801561024657600080fd5b50610261600480360381019061025c91906113c9565b610e23565b005b34801561026f57600080fd5b50610278611076565b604051610285919061178b565b60405180910390f35b34801561029a57600080fd5b506102b560048036038101906102b0919061145d565b61109c565b6040516102c29190611770565b60405180910390f35b3480156102d757600080fd5b506102f260048036038101906102ed919061139c565b6110e4565b005b34801561030057600080fd5b5061030961128d565b60405161031691906119c6565b60405180910390f35b600560009054906101000a900473ffffffffffffffffffffffffffffffffffffffff1673ffffffffffffffffffffffffffffffffffffffff16610360611293565b73ffffffffffffffffffffffffffffffffffffffff16146103b6576040517f08c379a00000000000000000000000000000000000000000000000000000000081526004016103ad90611926565b60405180910390fd5b6000600154146103fb576040517f08c379a00000000000000000000000000000000000000000000000000000000081526004016103f290611846565b60405180910390fd5b6001808190555060006003549050600060038190555061043d81600560009054906101000a900473ffffffffffffffffffffffffffffffffffffffff1661129b565b7f7fcf532c15f0a6db0bd6d0e038bea71d30d808c7d98cb3bf7268a95bf5081b65600560009054906101000a900473ffffffffffffffffffffffffffffffffffffffff16826040516104909291906117a6565b60405180910390a1506000600181905550565b60035481565b6104b1611293565b73ffffffffffffffffffffffffffffffffffffffff166104cf610b6d565b73ffffffffffffffffffffffffffffffffffffffff1614610525576040517f08c379a000000000000000000000000000000000000000000000000000000000815260040161051c906118c6565b60405180910390fd5b600073ffffffffffffffffffffffffffffffffffffffff1660008054906101000a900473ffffffffffffffffffffffffffffffffffffffff1673ffffffffffffffffffffffffffffffffffffffff167f8be0079c531659141344cd1fd0a4f28419497f9722a3daafe3b4186f6b6457e060405160405180910390a360008060006101000a81548173ffffffffffffffffffffffffffffffffffffffff021916908373ffffffffffffffffffffffffffffffffffffffff160217905550565b6002548210610627576040517f08c379a000000000000000000000000000000000000000000000000000000000815260040161061e90611906565b60405180910390fd5b600073ffffffffffffffffffffffffffffffffffffffff168173ffffffffffffffffffffffffffffffffffffffff161415801561069057503073ffffffffffffffffffffffffffffffffffffffff168173ffffffffffffffffffffffffffffffffffffffff1614155b6106cf576040517f08c379a00000000000000000000000000000000000000000000000000000000081526004016106c6906118a6565b60405180910390fd5b60005b60068054905081101561079f57600681815481106106f3576106f2611bf9565b5b9060005260206000200160009054906101000a900473ffffffffffffffffffffffffffffffffffffffff1673ffffffffffffffffffffffffffffffffffffffff168273ffffffffffffffffffffffffffffffffffffffff16141561078c576040517f08c379a000000000000000000000000000000000000000000000000000000000815260040161078390611826565b60405180910390fd5b808061079790611b21565b9150506106d2565b5080600683815481106107b5576107b4611bf9565b5b9060005260206000200160006101000a81548173ffffffffffffffffffffffffffffffffffffffff021916908373ffffffffffffffffffffffffffffffffffffffff1602179055505050565b600460009054906101000a900473ffffffffffffffffffffffffffffffffffffffff1673ffffffffffffffffffffffffffffffffffffffff16610842611293565b73ffffffffffffffffffffffffffffffffffffffff1614610898576040517f08c379a000000000000000000000000000000000000000000000000000000000815260040161088f90611966565b60405180910390fd5b60005b60068054905081101561097b57600060076000600684815481106108c2576108c1611bf9565b5b9060005260206000200160009054906101000a900473ffffffffffffffffffffffffffffffffffffffff1673ffffffffffffffffffffffffffffffffffffffff1673ffffffffffffffffffffffffffffffffffffffff1681526020019081526020016000205411610968576040517f08c379a000000000000000000000000000000000000000000000000000000000815260040161095f90611806565b60405180910390fd5b808061097390611b21565b91505061089b565b5060005b600680549050811015610ab85760076000600683815481106109a4576109a3611bf9565b5b9060005260206000200160009054906101000a900473ffffffffffffffffffffffffffffffffffffffff1673ffffffffffffffffffffffffffffffffffffffff1673ffffffffffffffffffffffffffffffffffffffff1681526020019081526020016000205460036000828254610a1b9190611a08565b9250508190555060006007600060068481548110610a3c57610a3b611bf9565b5b9060005260206000200160009054906101000a900473ffffffffffffffffffffffffffffffffffffffff1673ffffffffffffffffffffffffffffffffffffffff1673ffffffffffffffffffffffffffffffffffffffff168152602001908152602001600020819055508080610ab090611b21565b91505061097f565b50600660025442610ac99190611b6a565b81548110610ada57610ad9611bf9565b5b9060005260206000200160009054906101000a900473ffffffffffffffffffffffffffffffffffffffff16600560006101000a81548173ffffffffffffffffffffffffffffffffffffffff021916908373ffffffffffffffffffffffffffffffffffffffff160217905550565b600460009054906101000a900473ffffffffffffffffffffffffffffffffffffffff1681565b60008060009054906101000a900473ffffffffffffffffffffffffffffffffffffffff16905090565b600660025442610ba69190611b6a565b81548110610bb757610bb6611bf9565b5b9060005260206000200160009054906101000a900473ffffffffffffffffffffffffffffffffffffffff16600460006101000a81548173ffffffffffffffffffffffffffffffffffffffff021916908373ffffffffffffffffffffffffffffffffffffffff160217905550565b60003411610c67576040517f08c379a0000000000000000000000000000000000000000000000000000000008152600401610c5e90611886565b60405180910390fd5b6006600081548110610c7c57610c7b611bf9565b5b9060005260206000200160009054906101000a900473ffffffffffffffffffffffffffffffffffffffff1673ffffffffffffffffffffffffffffffffffffffff16610cc5611293565b73ffffffffffffffffffffffffffffffffffffffff161480610d5857506006600181548110610cf757610cf6611bf9565b5b9060005260206000200160009054906101000a900473ffffffffffffffffffffffffffffffffffffffff1673ffffffffffffffffffffffffffffffffffffffff16610d40611293565b73ffffffffffffffffffffffffffffffffffffffff16145b610d97576040517f08c379a0000000000000000000000000000000000000000000000000000000008152600401610d8e90611946565b60405180910390fd5b3460076000610da4611293565b73ffffffffffffffffffffffffffffffffffffffff1673ffffffffffffffffffffffffffffffffffffffff16815260200190815260200160002081905550565b60068181548110610df457600080fd5b906000526020600020016000915054906101000a900473ffffffffffffffffffffffffffffffffffffffff1681565b600060015414610e68576040517f08c379a0000000000000000000000000000000000000000000000000000000008152600401610e5f90611846565b60405180910390fd5b600180819055503073ffffffffffffffffffffffffffffffffffffffff168273ffffffffffffffffffffffffffffffffffffffff161480610ef65750600560009054906101000a900473ffffffffffffffffffffffffffffffffffffffff1673ffffffffffffffffffffffffffffffffffffffff168273ffffffffffffffffffffffffffffffffffffffff16145b610f35576040517f08c379a0000000000000000000000000000000000000000000000000000000008152600401610f2c906119a6565b60405180910390fd5b6000808573ffffffffffffffffffffffffffffffffffffffff166323b872dd868686604051602401610f69939291906117cf565b6040516020818303038152906040529060e01b6020820180517bffffffffffffffffffffffffffffffffffffffffffffffffffffffff8381831617835250505050604051610fb79190611744565b6000604051808303816000865af19150503d8060008114610ff4576040519150601f19603f3d011682016040523d82523d6000602084013e610ff9565b606091505b509150915081801561102757506000815114806110265750808060200190518101906110259190611430565b5b5b611066576040517f08c379a000000000000000000000000000000000000000000000000000000000815260040161105d906118e6565b60405180910390fd5b5050600060018190555050505050565b600560009054906101000a900473ffffffffffffffffffffffffffffffffffffffff1681565b6000600682815481106110b2576110b1611bf9565b5b9060005260206000200160009054906101000a900473ffffffffffffffffffffffffffffffffffffffff169050919050565b6110ec611293565b73ffffffffffffffffffffffffffffffffffffffff1661110a610b6d565b73ffffffffffffffffffffffffffffffffffffffff1614611160576040517f08c379a0000000000000000000000000000000000000000000000000000000008152600401611157906118c6565b60405180910390fd5b600073ffffffffffffffffffffffffffffffffffffffff168173ffffffffffffffffffffffffffffffffffffffff1614156111d0576040517f08c379a00000000000000000000000000000000000000000000000000000000081526004016111c790611866565b60405180910390fd5b8073ffffffffffffffffffffffffffffffffffffffff1660008054906101000a900473ffffffffffffffffffffffffffffffffffffffff1673ffffffffffffffffffffffffffffffffffffffff167f8be0079c531659141344cd1fd0a4f28419497f9722a3daafe3b4186f6b6457e060405160405180910390a3806000806101000a81548173ffffffffffffffffffffffffffffffffffffffff021916908373ffffffffffffffffffffffffffffffffffffffff16021790555050565b60025481565b600033905090565b6000808273ffffffffffffffffffffffffffffffffffffffff16846040516112c29061175b565b60006040518083038185875af1925050503d80600081146112ff576040519150601f19603f3d011682016040523d82523d6000602084013e611304565b606091505b509150915081801561131857506000815110155b611357576040517f08c379a000000000000000000000000000000000000000000000000000000000815260040161134e90611986565b60405180910390fd5b50505050565b60008135905061136c81611f52565b92915050565b60008151905061138181611f69565b92915050565b60008135905061139681611f80565b92915050565b6000602082840312156113b2576113b1611c28565b5b60006113c08482850161135d565b91505092915050565b600080600080608085870312156113e3576113e2611c28565b5b60006113f18782880161135d565b94505060206114028782880161135d565b93505060406114138782880161135d565b925050606061142487828801611387565b91505092959194509250565b60006020828403121561144657611445611c28565b5b600061145484828501611372565b91505092915050565b60006020828403121561147357611472611c28565b5b600061148184828501611387565b91505092915050565b600080604083850312156114a1576114a0611c28565b5b60006114af85828601611387565b92505060206114c08582860161135d565b9150509250929050565b6114d381611ab8565b82525050565b6114e281611a70565b82525050565b6114f181611a5e565b82525050565b6000611502826119e1565b61150c81856119ec565b935061151c818560208601611aee565b80840191505092915050565b6000611535604a836119f7565b915061154082611c2d565b606082019050919050565b60006115586027836119f7565b915061156382611ca2565b604082019050919050565b600061157b6015836119f7565b915061158682611cf1565b602082019050919050565b600061159e6026836119f7565b91506115a982611d1a565b604082019050919050565b60006115c1601c836119f7565b91506115cc82611d69565b602082019050919050565b60006115e4601d836119f7565b91506115ef82611d92565b602082019050919050565b60006116076020836119f7565b915061161282611dbb565b602082019050919050565b600061162a6035836119f7565b915061163582611de4565b604082019050919050565b600061164d6020836119f7565b915061165882611e33565b602082019050919050565b60006116706014836119f7565b915061167b82611e5c565b602082019050919050565b60006116936000836119ec565b915061169e82611e85565b600082019050919050565b60006116b66038836119f7565b91506116c182611e88565b604082019050919050565b60006116d9601b836119f7565b91506116e482611ed7565b602082019050919050565b60006116fc6017836119f7565b915061170782611f00565b602082019050919050565b600061171f601e836119f7565b915061172a82611f29565b602082019050919050565b61173e81611aae565b82525050565b600061175082846114f7565b915081905092915050565b600061176682611686565b9150819050919050565b600060208201905061178560008301846114e8565b92915050565b60006020820190506117a060008301846114d9565b92915050565b60006040820190506117bb60008301856114ca565b6117c86020830184611735565b9392505050565b60006060820190506117e460008301866114e8565b6117f160208301856114e8565b6117fe6040830184611735565b949350505050565b6000602082019050818103600083015261181f81611528565b9050919050565b6000602082019050818103600083015261183f8161154b565b9050919050565b6000602082019050818103600083015261185f8161156e565b9050919050565b6000602082019050818103600083015261187f81611591565b9050919050565b6000602082019050818103600083015261189f816115b4565b9050919050565b600060208201905081810360008301526118bf816115d7565b9050919050565b600060208201905081810360008301526118df816115fa565b9050919050565b600060208201905081810360008301526118ff8161161d565b9050919050565b6000602082019050818103600083015261191f81611640565b9050919050565b6000602082019050818103600083015261193f81611663565b9050919050565b6000602082019050818103600083015261195f816116a9565b9050919050565b6000602082019050818103600083015261197f816116cc565b9050919050565b6000602082019050818103600083015261199f816116ef565b9050919050565b600060208201905081810360008301526119bf81611712565b9050919050565b60006020820190506119db6000830184611735565b92915050565b600081519050919050565b600081905092915050565b600082825260208201905092915050565b6000611a1382611aae565b9150611a1e83611aae565b9250827fffffffffffffffffffffffffffffffffffffffffffffffffffffffffffffffff03821115611a5357611a52611b9b565b5b828201905092915050565b6000611a6982611a8e565b9050919050565b6000611a7b82611a8e565b9050919050565b60008115159050919050565b600073ffffffffffffffffffffffffffffffffffffffff82169050919050565b6000819050919050565b6000611ac382611aca565b9050919050565b6000611ad582611adc565b9050919050565b6000611ae782611a8e565b9050919050565b60005b83811015611b0c578082015181840152602081019050611af1565b83811115611b1b576000848401525b50505050565b6000611b2c82611aae565b91507fffffffffffffffffffffffffffffffffffffffffffffffffffffffffffffffff821415611b5f57611b5e611b9b565b5b600182019050919050565b6000611b7582611aae565b9150611b8083611aae565b925082611b9057611b8f611bca565b5b828206905092915050565b7f4e487b7100000000000000000000000000000000000000000000000000000000600052601160045260246000fd5b7f4e487b7100000000000000000000000000000000000000000000000000000000600052601260045260246000fd5b7f4e487b7100000000000000000000000000000000000000000000000000000000600052603260045260246000fd5b600080fd5b7f436f696e466c69703a206e6f7420616c6c20706c61796572732068617665207360008201527f74616b656420746865697220636f6c6c61746572616c202d2063616e206e6f7460208201527f20666c697020636f696e00000000000000000000000000000000000000000000604082015250565b7f436f696e466c69703a20706c6179657220697320616c7265616479207061727460008201527f69636970616e7400000000000000000000000000000000000000000000000000602082015250565b7f4e6f6e5265656e7472616e743a205265656e7472790000000000000000000000600082015250565b7f4f776e61626c653a206e6577206f776e657220697320746865207a65726f206160008201527f6464726573730000000000000000000000000000000000000000000000000000602082015250565b7f436f696e466c69703a20616d6f756e7420697320746f6f206c6f772e00000000600082015250565b7f436f696e466c69703a2061646472657373206e6f7420616c6c6f776564000000600082015250565b7f4f776e61626c653a2063616c6c6572206973206e6f7420746865206f776e6572600082015250565b7f436f696e466c69703a206661696c656420746f2063616c6c207472616e73666560008201527f7246726f6d206f6e2043465420636f6e74726163740000000000000000000000602082015250565b7f436f696e466c69703a20696e646578206973206e6f7420617661696c61626c65600082015250565b7f436f696e466c69703a206e6f742077696e6e6572000000000000000000000000600082015250565b50565b7f436f696e466c69703a206e6f7420612070617274696369706174696e6720706c60008201527f61796572202d2063616e206e6f74206164642066756e64730000000000000000602082015250565b7f436f696e466c69703a206e6f742061637469766520706c617965720000000000600082015250565b7f436f696e466c69703a207061796f7574206661696c6564000000000000000000600082015250565b7f436f696e466c69703a207472616e73666572206e6f7420616c6c6f7765640000600082015250565b611f5b81611a5e565b8114611f6657600080fd5b50565b611f7281611a82565b8114611f7d57600080fd5b50565b611f8981611aae565b8114611f9457600080fd5b5056fea26469706673582212204a97d12fd7ff03abfadf377b4c00e887f47f32f9bd059e70d7e503855600b80264736f6c63430008060033",
  "immutableReferences": {},
  "source": "// SPDX-License-Identifier: MIT\r\n\r\n/*\r\n * This contract works with pseudo-randomness that could be predetermined and exploited by a miner\r\n * For demonstration purposes only.\r\n */\r\n\r\nimport { Context } from \"./Context.sol\";\r\nimport { Ownable } from \"./Ownable.sol\";\r\nimport { NonReentrant } from \"./NonReentrant.sol\";\r\n\r\npragma solidity 0.8.6;\r\n\r\ncontract CoinFlip is Context, Ownable, NonReentrant {\r\n\r\n    uint256 public totalPlayers;\r\n    uint256 public jackpot;\r\n    address public activePlayer;\r\n    address payable public winner;\r\n    address[] public participatingPlayers;\r\n    mapping(address => uint) userCollaterals;\r\n\r\n    event Withdrawal(address to, uint256 amount);\r\n\r\n    modifier onlyActivePlayer {\r\n        require(_msgSender() == activePlayer, \"CoinFlip: not active player\");\r\n        _;\r\n    }\r\n\r\n    modifier onlyWinner {\r\n        require(_msgSender() == winner, \"CoinFlip: not winner\");\r\n        _;\r\n    }\r\n\r\n    // @dev This game can be played by any number of users that are set in the constructor.\r\n    constructor(uint256 _num, address _player1, address _player2) {\r\n        totalPlayers = _num;\r\n        participatingPlayers = new address[](totalPlayers);\r\n        participatingPlayers[0] = _player1;\r\n        participatingPlayers[1] = _player2;\r\n    }\r\n\r\n    function insertPlayer (uint256 _index, address _player) public {\r\n        require(_index < totalPlayers, \"CoinFlip: index is not available\");\r\n        require(_player != address(0) && _player != address(this), \"CoinFlip: address not allowed\");\r\n        for (uint256 i = 0; i < participatingPlayers.length; i++) {\r\n            require(_player != participatingPlayers[i], \"CoinFlip: player is already participant\");\r\n        }\r\n        participatingPlayers[_index] = _player;\r\n    }\r\n\r\n    function addCollateral () public payable {\r\n        require(msg.value > 0, \"CoinFlip: amount is too low.\");\r\n        require(_msgSender() == participatingPlayers[0] || _msgSender() == participatingPlayers[1],\r\n            \"CoinFlip: not a participating player - can not add funds\");\r\n        userCollaterals[_msgSender()] = msg.value;\r\n    }\r\n\r\n    function determineActivePlayer() public {\r\n        activePlayer = participatingPlayers[block.timestamp % totalPlayers];\r\n    }\r\n\r\n    function flipCoin() public onlyActivePlayer {\r\n        // ensure that all players have staked something\r\n        for (uint256 i = 0; i < participatingPlayers.length; i++) {\r\n            require(userCollaterals[participatingPlayers[i]] > 0,\r\n                \"CoinFlip: not all players have staked their collateral - can not flip coin\");\r\n        }\r\n        // fill jackpot\r\n        for (uint256 i = 0; i < participatingPlayers.length; i++) {\r\n            jackpot += userCollaterals[participatingPlayers[i]];\r\n            userCollaterals[participatingPlayers[i]] = 0;\r\n        }\r\n        // determine winner\r\n        winner = payable(participatingPlayers[block.timestamp % totalPlayers]);\r\n    }\r\n\r\n    function withdrawCollateral() public onlyWinner noReentry { // checks\r\n        uint256 toWithdraw = jackpot;\r\n        jackpot = 0;                                            // effects\r\n        payout(toWithdraw, winner);                             // interactions\r\n        emit Withdrawal(winner, toWithdraw);\r\n    }\r\n\r\n    function payout(uint256 _amount, address payable _to) internal {\r\n        (bool success, bytes memory data) = _to.call{value: _amount}(\"\");\r\n        require (success && data.length >= 0, \"CoinFlip: payout failed\");\r\n    }\r\n\r\n    function getPlayer(uint256 _index) public view returns (address) {\r\n        return participatingPlayers[_index];\r\n    }\r\n\r\n    /* ERC20 safeTransferFrom function allows\r\n     * 1) transfer of CFT Tokens to the CoinFlip contract\r\n     *    token = CFT.address\r\n     *    from = player\r\n     *    to = address(this)\r\n     * 2) transfer of CFT Tokens to the winner\r\n     *    token = CFT.address\r\n     *    from = address(this)\r\n     *    to = winner\r\n     */\r\n    function safeTransferFrom(\r\n        address _token,\r\n        address _from,\r\n        address _to,\r\n        uint256 _amount\r\n    ) external noReentry {\r\n        require(_to == address(this) || _to == winner, \"CoinFlip: transfer not allowed\");\r\n        // selector = bytes4(keccak256(bytes('transferFrom(address,address,uint256)')))\r\n        (bool success, bytes memory data) = _token.call(abi.encodeWithSelector(0x23b872dd, _from, _to, _amount));\r\n        require (success && (data.length == 0 || abi.decode(data, (bool))),\r\n        \"CoinFlip: failed to call transferFrom on CFT contract\");\r\n    }\r\n\r\n}\r\n",
  "sourcePath": "D:/Documents/Career/IT/BP/CoinFlip/contracts/CoinFlip.sol",
  "compiler": {
    "name": "solc",
    "version": "0.8.6+commit.11564f7e.Emscripten.clang"
  },
  "schemaVersion": "3.4.1",
  "updatedAt": "2021-06-27T20:41:37.289Z",
  "devdoc": {
    "kind": "dev",
    "methods": {
      "owner()": {
        "details": "Returns the address of the current owner."
      },
      "renounceOwnership()": {
        "details": "Leaves the contract without owner. It will not be possible to call `onlyOwner` functions anymore. Can only be called by the current owner. NOTE: Renouncing ownership will leave the contract without an owner, thereby removing any functionality that is only available to the owner."
      },
      "transferOwnership(address)": {
        "details": "Transfers ownership of the contract to a new account (`newOwner`). Can only be called by the current owner."
      }
    },
    "version": 1
  },
  "userdoc": {
    "kind": "user",
    "methods": {},
    "version": 1
  }
}