{
  "contractName": "CoinFlip",
  "abi": [
    {
      "inputs": [
        {
          "internalType": "uint256",
          "name": "_num",
          "type": "uint256"
        },
        {
          "internalType": "address",
          "name": "_player1",
          "type": "address"
        },
        {
          "internalType": "address",
          "name": "_player2",
          "type": "address"
        }
      ],
      "stateMutability": "nonpayable",
      "type": "constructor"
    },
    {
      "anonymous": false,
      "inputs": [
        {
          "indexed": true,
          "internalType": "address",
          "name": "previousOwner",
          "type": "address"
        },
        {
          "indexed": true,
          "internalType": "address",
          "name": "newOwner",
          "type": "address"
        }
      ],
      "name": "OwnershipTransferred",
      "type": "event"
    },
    {
      "anonymous": false,
      "inputs": [
        {
          "indexed": false,
          "internalType": "address",
          "name": "to",
          "type": "address"
        },
        {
          "indexed": false,
          "internalType": "uint256",
          "name": "amount",
          "type": "uint256"
        }
      ],
      "name": "Withdrawal",
      "type": "event"
    },
    {
      "inputs": [],
      "name": "activePlayer",
      "outputs": [
        {
          "internalType": "address",
          "name": "",
          "type": "address"
        }
      ],
      "stateMutability": "view",
      "type": "function"
    },
    {
      "inputs": [],
      "name": "jackpot",
      "outputs": [
        {
          "internalType": "uint256",
          "name": "",
          "type": "uint256"
        }
      ],
      "stateMutability": "view",
      "type": "function"
    },
    {
      "inputs": [],
      "name": "jackpotCFT",
      "outputs": [
        {
          "internalType": "uint256",
          "name": "",
          "type": "uint256"
        }
      ],
      "stateMutability": "view",
      "type": "function"
    },
    {
      "inputs": [],
      "name": "owner",
      "outputs": [
        {
          "internalType": "address",
          "name": "",
          "type": "address"
        }
      ],
      "stateMutability": "view",
      "type": "function"
    },
    {
      "inputs": [
        {
          "internalType": "uint256",
          "name": "",
          "type": "uint256"
        }
      ],
      "name": "participatingPlayers",
      "outputs": [
        {
          "internalType": "address",
          "name": "",
          "type": "address"
        }
      ],
      "stateMutability": "view",
      "type": "function"
    },
    {
      "inputs": [],
      "name": "renounceOwnership",
      "outputs": [],
      "stateMutability": "nonpayable",
      "type": "function"
    },
    {
      "inputs": [],
      "name": "totalPlayers",
      "outputs": [
        {
          "internalType": "uint256",
          "name": "",
          "type": "uint256"
        }
      ],
      "stateMutability": "view",
      "type": "function"
    },
    {
      "inputs": [
        {
          "internalType": "address",
          "name": "newOwner",
          "type": "address"
        }
      ],
      "name": "transferOwnership",
      "outputs": [],
      "stateMutability": "nonpayable",
      "type": "function"
    },
    {
      "inputs": [],
      "name": "winner",
      "outputs": [
        {
          "internalType": "address payable",
          "name": "",
          "type": "address"
        }
      ],
      "stateMutability": "view",
      "type": "function"
    },
    {
      "inputs": [
        {
          "internalType": "uint256",
          "name": "_index",
          "type": "uint256"
        },
        {
          "internalType": "address",
          "name": "_player",
          "type": "address"
        }
      ],
      "name": "insertPlayer",
      "outputs": [],
      "stateMutability": "nonpayable",
      "type": "function"
    },
    {
      "inputs": [],
      "name": "addCollateral",
      "outputs": [],
      "stateMutability": "payable",
      "type": "function"
    },
    {
      "inputs": [],
      "name": "determineActivePlayer",
      "outputs": [],
      "stateMutability": "nonpayable",
      "type": "function"
    },
    {
      "inputs": [],
      "name": "flipCoin",
      "outputs": [],
      "stateMutability": "nonpayable",
      "type": "function"
    },
    {
      "inputs": [],
      "name": "withdrawCollateral",
      "outputs": [],
      "stateMutability": "nonpayable",
      "type": "function"
    },
    {
      "inputs": [
        {
          "internalType": "uint256",
          "name": "_index",
          "type": "uint256"
        }
      ],
      "name": "getPlayer",
      "outputs": [
        {
          "internalType": "address",
          "name": "",
          "type": "address"
        }
      ],
      "stateMutability": "view",
      "type": "function"
    },
    {
      "inputs": [
        {
          "internalType": "uint256",
          "name": "_amount",
          "type": "uint256"
        }
      ],
      "name": "addCollateralCFT",
      "outputs": [],
      "stateMutability": "nonpayable",
      "type": "function"
    },
    {
      "inputs": [],
      "name": "withdrawCollateralCFT",
      "outputs": [],
      "stateMutability": "nonpayable",
      "type": "function"
    }
  ],
  "bytecode": "0x60806040523480156200001157600080fd5b506040516200276038038062002760833981810160405281019062000037919062000304565b6000620000496200022060201b60201c565b9050806000806101000a81548173ffffffffffffffffffffffffffffffffffffffff021916908373ffffffffffffffffffffffffffffffffffffffff1602179055508073ffffffffffffffffffffffffffffffffffffffff16600073ffffffffffffffffffffffffffffffffffffffff167f8be0079c531659141344cd1fd0a4f28419497f9722a3daafe3b4186f6b6457e060405160405180910390a3508260028190555060025467ffffffffffffffff8111156200010d576200010c620003cd565b5b6040519080825280602002602001820160405280156200013c5781602001602082028036833780820191505090505b50600790805190602001906200015492919062000228565b508160076000815481106200016e576200016d6200039e565b5b9060005260206000200160006101000a81548173ffffffffffffffffffffffffffffffffffffffff021916908373ffffffffffffffffffffffffffffffffffffffff160217905550806007600181548110620001cf57620001ce6200039e565b5b9060005260206000200160006101000a81548173ffffffffffffffffffffffffffffffffffffffff021916908373ffffffffffffffffffffffffffffffffffffffff16021790555050505062000435565b600033905090565b828054828255906000526020600020908101928215620002a4579160200282015b82811115620002a35782518260006101000a81548173ffffffffffffffffffffffffffffffffffffffff021916908373ffffffffffffffffffffffffffffffffffffffff1602179055509160200191906001019062000249565b5b509050620002b39190620002b7565b5090565b5b80821115620002d2576000816000905550600101620002b8565b5090565b600081519050620002e78162000401565b92915050565b600081519050620002fe816200041b565b92915050565b60008060006060848603121562000320576200031f620003fc565b5b60006200033086828701620002ed565b93505060206200034386828701620002d6565b92505060406200035686828701620002d6565b9150509250925092565b60006200036d8262000374565b9050919050565b600073ffffffffffffffffffffffffffffffffffffffff82169050919050565b6000819050919050565b7f4e487b7100000000000000000000000000000000000000000000000000000000600052603260045260246000fd5b7f4e487b7100000000000000000000000000000000000000000000000000000000600052604160045260246000fd5b600080fd5b6200040c8162000360565b81146200041857600080fd5b50565b620004268162000394565b81146200043257600080fd5b50565b61231b80620004456000396000f3fe6080604052600436106100fe5760003560e01c8063939ee28d11610095578063dfbf53ae11610064578063dfbf53ae146102a4578063e55ae4e8146102cf578063f2fde38b1461030c578063f60cdcf614610335578063fc28cfde14610360576100fe565b8063939ee28d1461021d57806397248cc1146102465780639e8169991461025d578063ad6591ee14610267576100fe565b8063799ae223116100d1578063799ae223146101855780637fdffd231461019c57806389de5afd146101c75780638da5cb5b146101f2576100fe565b806359c153be146101035780636b31ee011461011a578063715018a6146101455780637498878f1461015c575b600080fd5b34801561010f57600080fd5b50610118610377565b005b34801561012657600080fd5b5061012f6104fb565b60405161013c9190611d14565b60405180910390f35b34801561015157600080fd5b5061015a610501565b005b34801561016857600080fd5b50610183600480360381019061017e91906117d8565b61063b565b005b34801561019157600080fd5b5061019a610859565b005b3480156101a857600080fd5b506101b1610b9f565b6040516101be9190611abe565b60405180910390f35b3480156101d357600080fd5b506101dc610bc5565b6040516101e99190611d14565b60405180910390f35b3480156101fe57600080fd5b50610207610bcb565b6040516102149190611abe565b60405180910390f35b34801561022957600080fd5b50610244600480360381019061023f91906117ab565b610bf4565b005b34801561025257600080fd5b5061025b610da7565b005b610265610e35565b005b34801561027357600080fd5b5061028e600480360381019061028991906117ab565b610ff5565b60405161029b9190611abe565b60405180910390f35b3480156102b057600080fd5b506102b9611034565b6040516102c69190611ad9565b60405180910390f35b3480156102db57600080fd5b506102f660048036038101906102f191906117ab565b61105a565b6040516103039190611abe565b60405180910390f35b34801561031857600080fd5b50610333600480360381019061032e9190611751565b6110a2565b005b34801561034157600080fd5b5061034a61124b565b6040516103579190611d14565b60405180910390f35b34801561036c57600080fd5b50610375611251565b005b600660009054906101000a900473ffffffffffffffffffffffffffffffffffffffff1673ffffffffffffffffffffffffffffffffffffffff166103b86113f5565b73ffffffffffffffffffffffffffffffffffffffff161461040e576040517f08c379a000000000000000000000000000000000000000000000000000000000815260040161040590611c74565b60405180910390fd5b600060015414610453576040517f08c379a000000000000000000000000000000000000000000000000000000000815260040161044a90611b94565b60405180910390fd5b6001808190555060006003549050600060038190555061049581600660009054906101000a900473ffffffffffffffffffffffffffffffffffffffff166113fd565b7f7fcf532c15f0a6db0bd6d0e038bea71d30d808c7d98cb3bf7268a95bf5081b65600660009054906101000a900473ffffffffffffffffffffffffffffffffffffffff16826040516104e8929190611af4565b60405180910390a1506000600181905550565b60035481565b6105096113f5565b73ffffffffffffffffffffffffffffffffffffffff16610527610bcb565b73ffffffffffffffffffffffffffffffffffffffff161461057d576040517f08c379a000000000000000000000000000000000000000000000000000000000815260040161057490611c14565b60405180910390fd5b600073ffffffffffffffffffffffffffffffffffffffff1660008054906101000a900473ffffffffffffffffffffffffffffffffffffffff1673ffffffffffffffffffffffffffffffffffffffff167f8be0079c531659141344cd1fd0a4f28419497f9722a3daafe3b4186f6b6457e060405160405180910390a360008060006101000a81548173ffffffffffffffffffffffffffffffffffffffff021916908373ffffffffffffffffffffffffffffffffffffffff160217905550565b600254821061067f576040517f08c379a000000000000000000000000000000000000000000000000000000000815260040161067690611c54565b60405180910390fd5b600073ffffffffffffffffffffffffffffffffffffffff168173ffffffffffffffffffffffffffffffffffffffff16141580156106e857503073ffffffffffffffffffffffffffffffffffffffff168173ffffffffffffffffffffffffffffffffffffffff1614155b610727576040517f08c379a000000000000000000000000000000000000000000000000000000000815260040161071e90611bf4565b60405180910390fd5b60005b6007805490508110156107f7576007818154811061074b5761074a611f47565b5b9060005260206000200160009054906101000a900473ffffffffffffffffffffffffffffffffffffffff1673ffffffffffffffffffffffffffffffffffffffff168273ffffffffffffffffffffffffffffffffffffffff1614156107e4576040517f08c379a00000000000000000000000000000000000000000000000000000000081526004016107db90611b74565b60405180910390fd5b80806107ef90611e6f565b91505061072a565b50806007838154811061080d5761080c611f47565b5b9060005260206000200160006101000a81548173ffffffffffffffffffffffffffffffffffffffff021916908373ffffffffffffffffffffffffffffffffffffffff1602179055505050565b600560009054906101000a900473ffffffffffffffffffffffffffffffffffffffff1673ffffffffffffffffffffffffffffffffffffffff1661089a6113f5565b73ffffffffffffffffffffffffffffffffffffffff16146108f0576040517f08c379a00000000000000000000000000000000000000000000000000000000081526004016108e790611cb4565b60405180910390fd5b60005b6007805490508110156109d3576000600960006007848154811061091a57610919611f47565b5b9060005260206000200160009054906101000a900473ffffffffffffffffffffffffffffffffffffffff1673ffffffffffffffffffffffffffffffffffffffff1673ffffffffffffffffffffffffffffffffffffffff16815260200190815260200160002054116109c0576040517f08c379a00000000000000000000000000000000000000000000000000000000081526004016109b790611b54565b60405180910390fd5b80806109cb90611e6f565b9150506108f3565b5060005b600780549050811015610b105760096000600783815481106109fc576109fb611f47565b5b9060005260206000200160009054906101000a900473ffffffffffffffffffffffffffffffffffffffff1673ffffffffffffffffffffffffffffffffffffffff1673ffffffffffffffffffffffffffffffffffffffff1681526020019081526020016000205460036000828254610a739190611d56565b9250508190555060006009600060078481548110610a9457610a93611f47565b5b9060005260206000200160009054906101000a900473ffffffffffffffffffffffffffffffffffffffff1673ffffffffffffffffffffffffffffffffffffffff1673ffffffffffffffffffffffffffffffffffffffff168152602001908152602001600020819055508080610b0890611e6f565b9150506109d7565b50600760025442610b219190611eb8565b81548110610b3257610b31611f47565b5b9060005260206000200160009054906101000a900473ffffffffffffffffffffffffffffffffffffffff16600660006101000a81548173ffffffffffffffffffffffffffffffffffffffff021916908373ffffffffffffffffffffffffffffffffffffffff160217905550565b600560009054906101000a900473ffffffffffffffffffffffffffffffffffffffff1681565b60045481565b60008060009054906101000a900473ffffffffffffffffffffffffffffffffffffffff16905090565b6007600081548110610c0957610c08611f47565b5b9060005260206000200160009054906101000a900473ffffffffffffffffffffffffffffffffffffffff1673ffffffffffffffffffffffffffffffffffffffff16610c526113f5565b73ffffffffffffffffffffffffffffffffffffffff161480610ce557506007600181548110610c8457610c83611f47565b5b9060005260206000200160009054906101000a900473ffffffffffffffffffffffffffffffffffffffff1673ffffffffffffffffffffffffffffffffffffffff16610ccd6113f5565b73ffffffffffffffffffffffffffffffffffffffff16145b610d24576040517f08c379a0000000000000000000000000000000000000000000000000000000008152600401610d1b90611c94565b60405180910390fd5b610d59600860009054906101000a900473ffffffffffffffffffffffffffffffffffffffff16610d526113f5565b30846114bf565b80600a6000610d666113f5565b73ffffffffffffffffffffffffffffffffffffffff1673ffffffffffffffffffffffffffffffffffffffff1681526020019081526020016000208190555050565b600760025442610db79190611eb8565b81548110610dc857610dc7611f47565b5b9060005260206000200160009054906101000a900473ffffffffffffffffffffffffffffffffffffffff16600560006101000a81548173ffffffffffffffffffffffffffffffffffffffff021916908373ffffffffffffffffffffffffffffffffffffffff160217905550565b60003411610e78576040517f08c379a0000000000000000000000000000000000000000000000000000000008152600401610e6f90611bd4565b60405180910390fd5b6007600081548110610e8d57610e8c611f47565b5b9060005260206000200160009054906101000a900473ffffffffffffffffffffffffffffffffffffffff1673ffffffffffffffffffffffffffffffffffffffff16610ed66113f5565b73ffffffffffffffffffffffffffffffffffffffff161480610f6957506007600181548110610f0857610f07611f47565b5b9060005260206000200160009054906101000a900473ffffffffffffffffffffffffffffffffffffffff1673ffffffffffffffffffffffffffffffffffffffff16610f516113f5565b73ffffffffffffffffffffffffffffffffffffffff16145b610fa8576040517f08c379a0000000000000000000000000000000000000000000000000000000008152600401610f9f90611c94565b60405180910390fd5b3460096000610fb56113f5565b73ffffffffffffffffffffffffffffffffffffffff1673ffffffffffffffffffffffffffffffffffffffff16815260200190815260200160002081905550565b6007818154811061100557600080fd5b906000526020600020016000915054906101000a900473ffffffffffffffffffffffffffffffffffffffff1681565b600660009054906101000a900473ffffffffffffffffffffffffffffffffffffffff1681565b6000600782815481106110705761106f611f47565b5b9060005260206000200160009054906101000a900473ffffffffffffffffffffffffffffffffffffffff169050919050565b6110aa6113f5565b73ffffffffffffffffffffffffffffffffffffffff166110c8610bcb565b73ffffffffffffffffffffffffffffffffffffffff161461111e576040517f08c379a000000000000000000000000000000000000000000000000000000000815260040161111590611c14565b60405180910390fd5b600073ffffffffffffffffffffffffffffffffffffffff168173ffffffffffffffffffffffffffffffffffffffff16141561118e576040517f08c379a000000000000000000000000000000000000000000000000000000000815260040161118590611bb4565b60405180910390fd5b8073ffffffffffffffffffffffffffffffffffffffff1660008054906101000a900473ffffffffffffffffffffffffffffffffffffffff1673ffffffffffffffffffffffffffffffffffffffff167f8be0079c531659141344cd1fd0a4f28419497f9722a3daafe3b4186f6b6457e060405160405180910390a3806000806101000a81548173ffffffffffffffffffffffffffffffffffffffff021916908373ffffffffffffffffffffffffffffffffffffffff16021790555050565b60025481565b600660009054906101000a900473ffffffffffffffffffffffffffffffffffffffff1673ffffffffffffffffffffffffffffffffffffffff166112926113f5565b73ffffffffffffffffffffffffffffffffffffffff16146112e8576040517f08c379a00000000000000000000000000000000000000000000000000000000081526004016112df90611c74565b60405180910390fd5b60006001541461132d576040517f08c379a000000000000000000000000000000000000000000000000000000000815260040161132490611b94565b60405180910390fd5b60018081905550611386600860009054906101000a900473ffffffffffffffffffffffffffffffffffffffff1630600660009054906101000a900473ffffffffffffffffffffffffffffffffffffffff166004546114bf565b7f7fcf532c15f0a6db0bd6d0e038bea71d30d808c7d98cb3bf7268a95bf5081b65600660009054906101000a900473ffffffffffffffffffffffffffffffffffffffff166004546040516113db929190611af4565b60405180910390a160006004819055506000600181905550565b600033905090565b6000808273ffffffffffffffffffffffffffffffffffffffff168460405161142490611aa9565b60006040518083038185875af1925050503d8060008114611461576040519150601f19603f3d011682016040523d82523d6000602084013e611466565b606091505b509150915081801561147a57506000815110155b6114b9576040517f08c379a00000000000000000000000000000000000000000000000000000000081526004016114b090611cd4565b60405180910390fd5b50505050565b600060015414611504576040517f08c379a00000000000000000000000000000000000000000000000000000000081526004016114fb90611b94565b60405180910390fd5b600180819055503073ffffffffffffffffffffffffffffffffffffffff168273ffffffffffffffffffffffffffffffffffffffff1614806115925750600660009054906101000a900473ffffffffffffffffffffffffffffffffffffffff1673ffffffffffffffffffffffffffffffffffffffff168273ffffffffffffffffffffffffffffffffffffffff16145b6115d1576040517f08c379a00000000000000000000000000000000000000000000000000000000081526004016115c890611cf4565b60405180910390fd5b6000808573ffffffffffffffffffffffffffffffffffffffff166323b872dd86868660405160240161160593929190611b1d565b6040516020818303038152906040529060e01b6020820180517bffffffffffffffffffffffffffffffffffffffffffffffffffffffff83818316178352505050506040516116539190611a92565b6000604051808303816000865af19150503d8060008114611690576040519150601f19603f3d011682016040523d82523d6000602084013e611695565b606091505b50915091508180156116c357506000815114806116c25750808060200190518101906116c1919061177e565b5b5b611702576040517f08c379a00000000000000000000000000000000000000000000000000000000081526004016116f990611c34565b60405180910390fd5b5050600060018190555050505050565b600081359050611721816122a0565b92915050565b600081519050611736816122b7565b92915050565b60008135905061174b816122ce565b92915050565b60006020828403121561176757611766611f76565b5b600061177584828501611712565b91505092915050565b60006020828403121561179457611793611f76565b5b60006117a284828501611727565b91505092915050565b6000602082840312156117c1576117c0611f76565b5b60006117cf8482850161173c565b91505092915050565b600080604083850312156117ef576117ee611f76565b5b60006117fd8582860161173c565b925050602061180e85828601611712565b9150509250929050565b61182181611e06565b82525050565b61183081611dbe565b82525050565b61183f81611dac565b82525050565b600061185082611d2f565b61185a8185611d3a565b935061186a818560208601611e3c565b80840191505092915050565b6000611883604a83611d45565b915061188e82611f7b565b606082019050919050565b60006118a6602783611d45565b91506118b182611ff0565b604082019050919050565b60006118c9601583611d45565b91506118d48261203f565b602082019050919050565b60006118ec602683611d45565b91506118f782612068565b604082019050919050565b600061190f601c83611d45565b915061191a826120b7565b602082019050919050565b6000611932601d83611d45565b915061193d826120e0565b602082019050919050565b6000611955602083611d45565b915061196082612109565b602082019050919050565b6000611978603583611d45565b915061198382612132565b604082019050919050565b600061199b602083611d45565b91506119a682612181565b602082019050919050565b60006119be601483611d45565b91506119c9826121aa565b602082019050919050565b60006119e1600083611d3a565b91506119ec826121d3565b600082019050919050565b6000611a04603883611d45565b9150611a0f826121d6565b604082019050919050565b6000611a27601b83611d45565b9150611a3282612225565b602082019050919050565b6000611a4a601783611d45565b9150611a558261224e565b602082019050919050565b6000611a6d601e83611d45565b9150611a7882612277565b602082019050919050565b611a8c81611dfc565b82525050565b6000611a9e8284611845565b915081905092915050565b6000611ab4826119d4565b9150819050919050565b6000602082019050611ad36000830184611836565b92915050565b6000602082019050611aee6000830184611827565b92915050565b6000604082019050611b096000830185611818565b611b166020830184611a83565b9392505050565b6000606082019050611b326000830186611836565b611b3f6020830185611836565b611b4c6040830184611a83565b949350505050565b60006020820190508181036000830152611b6d81611876565b9050919050565b60006020820190508181036000830152611b8d81611899565b9050919050565b60006020820190508181036000830152611bad816118bc565b9050919050565b60006020820190508181036000830152611bcd816118df565b9050919050565b60006020820190508181036000830152611bed81611902565b9050919050565b60006020820190508181036000830152611c0d81611925565b9050919050565b60006020820190508181036000830152611c2d81611948565b9050919050565b60006020820190508181036000830152611c4d8161196b565b9050919050565b60006020820190508181036000830152611c6d8161198e565b9050919050565b60006020820190508181036000830152611c8d816119b1565b9050919050565b60006020820190508181036000830152611cad816119f7565b9050919050565b60006020820190508181036000830152611ccd81611a1a565b9050919050565b60006020820190508181036000830152611ced81611a3d565b9050919050565b60006020820190508181036000830152611d0d81611a60565b9050919050565b6000602082019050611d296000830184611a83565b92915050565b600081519050919050565b600081905092915050565b600082825260208201905092915050565b6000611d6182611dfc565b9150611d6c83611dfc565b9250827fffffffffffffffffffffffffffffffffffffffffffffffffffffffffffffffff03821115611da157611da0611ee9565b5b828201905092915050565b6000611db782611ddc565b9050919050565b6000611dc982611ddc565b9050919050565b60008115159050919050565b600073ffffffffffffffffffffffffffffffffffffffff82169050919050565b6000819050919050565b6000611e1182611e18565b9050919050565b6000611e2382611e2a565b9050919050565b6000611e3582611ddc565b9050919050565b60005b83811015611e5a578082015181840152602081019050611e3f565b83811115611e69576000848401525b50505050565b6000611e7a82611dfc565b91507fffffffffffffffffffffffffffffffffffffffffffffffffffffffffffffffff821415611ead57611eac611ee9565b5b600182019050919050565b6000611ec382611dfc565b9150611ece83611dfc565b925082611ede57611edd611f18565b5b828206905092915050565b7f4e487b7100000000000000000000000000000000000000000000000000000000600052601160045260246000fd5b7f4e487b7100000000000000000000000000000000000000000000000000000000600052601260045260246000fd5b7f4e487b7100000000000000000000000000000000000000000000000000000000600052603260045260246000fd5b600080fd5b7f436f696e466c69703a206e6f7420616c6c20706c61796572732068617665207360008201527f74616b656420746865697220636f6c6c61746572616c202d2063616e206e6f7460208201527f20666c697020636f696e00000000000000000000000000000000000000000000604082015250565b7f436f696e466c69703a20706c6179657220697320616c7265616479207061727460008201527f69636970616e7400000000000000000000000000000000000000000000000000602082015250565b7f4e6f6e5265656e7472616e743a205265656e7472790000000000000000000000600082015250565b7f4f776e61626c653a206e6577206f776e657220697320746865207a65726f206160008201527f6464726573730000000000000000000000000000000000000000000000000000602082015250565b7f436f696e466c69703a20616d6f756e7420697320746f6f206c6f772e00000000600082015250565b7f436f696e466c69703a2061646472657373206e6f7420616c6c6f776564000000600082015250565b7f4f776e61626c653a2063616c6c6572206973206e6f7420746865206f776e6572600082015250565b7f436f696e466c69703a206661696c656420746f2063616c6c207472616e73666560008201527f7246726f6d206f6e2043465420636f6e74726163740000000000000000000000602082015250565b7f436f696e466c69703a20696e646578206973206e6f7420617661696c61626c65600082015250565b7f436f696e466c69703a206e6f742077696e6e6572000000000000000000000000600082015250565b50565b7f436f696e466c69703a206e6f7420612070617274696369706174696e6720706c60008201527f61796572202d2063616e206e6f74206164642066756e64730000000000000000602082015250565b7f436f696e466c69703a206e6f742061637469766520706c617965720000000000600082015250565b7f436f696e466c69703a207061796f7574206661696c6564000000000000000000600082015250565b7f436f696e466c69703a207472616e73666572206e6f7420616c6c6f7765640000600082015250565b6122a981611dac565b81146122b457600080fd5b50565b6122c081611dd0565b81146122cb57600080fd5b50565b6122d781611dfc565b81146122e257600080fd5b5056fea2646970667358221220e581a28be8c9ca8fa6e405df77f2ec3ae47f11570a9e4a03e227e0a58ed65b4464736f6c63430008060033",
  "immutableReferences": {},
  "source": "// SPDX-License-Identifier: MIT\r\n\r\n/*\r\n * This contract works with pseudo-randomness that could be predetermined and exploited by a miner\r\n * For demonstration purposes only.\r\n */\r\n\r\nimport { Context } from \"./Context.sol\";\r\nimport { Ownable } from \"./Ownable.sol\";\r\nimport { NonReentrant } from \"./NonReentrant.sol\";\r\n\r\npragma solidity 0.8.6;\r\n\r\ncontract CoinFlip is Context, Ownable, NonReentrant {\r\n\r\n    uint256 public totalPlayers;\r\n    uint256 public jackpot;\r\n    uint256 public jackpotCFT;                      // would be used if CFT allowed as collateral\r\n    address public activePlayer;\r\n    address payable public winner;\r\n    address[] public participatingPlayers;\r\n    address private coinFlipToken;                 // should be passed in constructor if CFT allowed as collateral\r\n    mapping(address => uint) userCollaterals;\r\n    mapping(address => uint) userCollateralsCFT;   // would be used if CFT allowed as collateral\r\n\r\n    event Withdrawal(address to, uint256 amount);\r\n\r\n    modifier onlyActivePlayer {\r\n        require(_msgSender() == activePlayer, \"CoinFlip: not active player\");\r\n        _;\r\n    }\r\n\r\n    modifier onlyWinner {\r\n        require(_msgSender() == winner, \"CoinFlip: not winner\");\r\n        _;\r\n    }\r\n\r\n    // @dev This game can be played by any number of users that are set in the constructor.\r\n    constructor(uint256 _num, address _player1, address _player2) {\r\n        totalPlayers = _num;\r\n        participatingPlayers = new address[](totalPlayers);\r\n        participatingPlayers[0] = _player1;\r\n        participatingPlayers[1] = _player2;\r\n    }\r\n\r\n    function insertPlayer (uint256 _index, address _player) public {\r\n        require(_index < totalPlayers, \"CoinFlip: index is not available\");\r\n        require(_player != address(0) && _player != address(this), \"CoinFlip: address not allowed\");\r\n        for (uint256 i = 0; i < participatingPlayers.length; i++) {\r\n            require(_player != participatingPlayers[i], \"CoinFlip: player is already participant\");\r\n        }\r\n        participatingPlayers[_index] = _player;\r\n    }\r\n\r\n    function addCollateral () public payable {\r\n        require(msg.value > 0, \"CoinFlip: amount is too low.\");\r\n        require(_msgSender() == participatingPlayers[0] || _msgSender() == participatingPlayers[1],\r\n            \"CoinFlip: not a participating player - can not add funds\");\r\n        userCollaterals[_msgSender()] = msg.value;\r\n    }\r\n\r\n    function determineActivePlayer() public {\r\n        activePlayer = participatingPlayers[block.timestamp % totalPlayers];\r\n    }\r\n\r\n    function flipCoin() public onlyActivePlayer {\r\n        // ensure that all players have staked something\r\n        for (uint256 i = 0; i < participatingPlayers.length; i++) {\r\n            require(userCollaterals[participatingPlayers[i]] > 0,\r\n                \"CoinFlip: not all players have staked their collateral - can not flip coin\");\r\n        }\r\n        // fill jackpot\r\n        for (uint256 i = 0; i < participatingPlayers.length; i++) {\r\n            jackpot += userCollaterals[participatingPlayers[i]];\r\n            userCollaterals[participatingPlayers[i]] = 0;\r\n        }\r\n        // determine winner\r\n        winner = payable(participatingPlayers[block.timestamp % totalPlayers]);\r\n    }\r\n\r\n    function withdrawCollateral() public onlyWinner noReentry { // checks\r\n        uint256 toWithdraw = jackpot;\r\n        jackpot = 0;                                            // effects\r\n        payout(toWithdraw, winner);                             // interactions\r\n        emit Withdrawal(winner, toWithdraw);\r\n    }\r\n\r\n    function payout(uint256 _amount, address payable _to) internal {\r\n        (bool success, bytes memory data) = _to.call{value: _amount}(\"\");\r\n        require (success && data.length >= 0, \"CoinFlip: payout failed\");\r\n    }\r\n\r\n    function getPlayer(uint256 _index) public view returns (address) {\r\n        return participatingPlayers[_index];\r\n    }\r\n\r\n    /* ERC20 functions to be used if CFT was allowed as collateral */\r\n\r\n    function safeTransferFrom(\r\n        address _token,\r\n        address _from,\r\n        address _to,\r\n        uint256 _amount\r\n    ) internal noReentry {\r\n        require(_to == address(this) || _to == winner, \"CoinFlip: transfer not allowed\");\r\n        // selector = bytes4(keccak256(bytes('transferFrom(address,address,uint256)')))\r\n        (bool success, bytes memory data) = _token.call(abi.encodeWithSelector(0x23b872dd, _from, _to, _amount));\r\n        require (success && (data.length == 0 || abi.decode(data, (bool))),\r\n        \"CoinFlip: failed to call transferFrom on CFT contract\");\r\n    }\r\n\r\n    function addCollateralCFT(uint256 _amount) public {\r\n        require(_msgSender() == participatingPlayers[0] || _msgSender() == participatingPlayers[1],\r\n            \"CoinFlip: not a participating player - can not add funds\");\r\n        safeTransferFrom(coinFlipToken, _msgSender(), address(this), _amount);\r\n        userCollateralsCFT[_msgSender()] = _amount;\r\n    }\r\n\r\n    function withdrawCollateralCFT() public onlyWinner noReentry {\r\n        safeTransferFrom(coinFlipToken, address(this), winner, jackpotCFT);\r\n        emit Withdrawal(winner, jackpotCFT);\r\n        jackpotCFT = 0;\r\n    }\r\n\r\n}\r\n",
  "sourcePath": "D:/Documents/Career/IT/BP/CoinFlip/contracts/CoinFlip.sol",
  "compiler": {
    "name": "solc",
    "version": "0.8.6+commit.11564f7e.Emscripten.clang"
  },
  "schemaVersion": "3.4.1",
  "updatedAt": "2021-07-04T16:59:17.321Z",
  "devdoc": {
    "kind": "dev",
    "methods": {
      "owner()": {
        "details": "Returns the address of the current owner."
      },
      "renounceOwnership()": {
        "details": "Leaves the contract without owner. It will not be possible to call `onlyOwner` functions anymore. Can only be called by the current owner. NOTE: Renouncing ownership will leave the contract without an owner, thereby removing any functionality that is only available to the owner."
      },
      "transferOwnership(address)": {
        "details": "Transfers ownership of the contract to a new account (`newOwner`). Can only be called by the current owner."
      }
    },
    "version": 1
  },
  "userdoc": {
    "kind": "user",
    "methods": {},
    "version": 1
  }
}