{
  "contractName": "LoserPays",
  "abi": [
    {
      "inputs": [
        {
          "internalType": "address",
          "name": "",
          "type": "address"
        }
      ],
      "name": "nonces",
      "outputs": [
        {
          "internalType": "uint256",
          "name": "",
          "type": "uint256"
        }
      ],
      "stateMutability": "view",
      "type": "function"
    },
    {
      "inputs": [
        {
          "internalType": "address",
          "name": "sender",
          "type": "address"
        },
        {
          "internalType": "address",
          "name": "target",
          "type": "address"
        },
        {
          "internalType": "bytes",
          "name": "data",
          "type": "bytes"
        },
        {
          "internalType": "uint256",
          "name": "nonce",
          "type": "uint256"
        },
        {
          "internalType": "bytes",
          "name": "sig",
          "type": "bytes"
        }
      ],
      "name": "feelessTransfer",
      "outputs": [],
      "stateMutability": "payable",
      "type": "function"
    }
  ],
  "bytecode": "0x608060405234801561001057600080fd5b50610e7b806100206000396000f3fe6080604052600436106100295760003560e01c80631ecc20bf1461002e5780637ecebe001461004a575b600080fd5b610048600480360381019061004391906108cf565b610087565b005b34801561005657600080fd5b50610071600480360381019061006c91906108a2565b610732565b60405161007e9190610b29565b60405180910390f35b600073ffffffffffffffffffffffffffffffffffffffff16600160009054906101000a900473ffffffffffffffffffffffffffffffffffffffff1673ffffffffffffffffffffffffffffffffffffffff1614156104485733600160006101000a81548173ffffffffffffffffffffffffffffffffffffffff021916908373ffffffffffffffffffffffffffffffffffffffff1602179055506000805414610163576040517f08c379a000000000000000000000000000000000000000000000000000000000815260040161015a90610ae9565b60405180910390fd5b60016000819055508373ffffffffffffffffffffffffffffffffffffffff163073ffffffffffffffffffffffffffffffffffffffff16146101a357600080fd5b60008484846040516020016101ba93929190610a54565b6040516020818303038152906040528051906020012090506101dc818361074a565b600160006101000a81548173ffffffffffffffffffffffffffffffffffffffff021916908373ffffffffffffffffffffffffffffffffffffffff1602179055508573ffffffffffffffffffffffffffffffffffffffff16600160009054906101000a900473ffffffffffffffffffffffffffffffffffffffff1673ffffffffffffffffffffffffffffffffffffffff161461027657600080fd5b8260026000600160009054906101000a900473ffffffffffffffffffffffffffffffffffffffff1673ffffffffffffffffffffffffffffffffffffffff1673ffffffffffffffffffffffffffffffffffffffff16815260200190815260200160002060008154809291906102e990610cbe565b91905055146102f757600080fd5b6000808673ffffffffffffffffffffffffffffffffffffffff1634876040516103209190610a8d565b60006040518083038185875af1925050503d806000811461035d576040519150601f19603f3d011682016040523d82523d6000602084013e610362565b606091505b509150915081801561037657506000815110155b6103b5576040517f08c379a00000000000000000000000000000000000000000000000000000000081526004016103ac90610b09565b60405180910390fd5b6000600160006101000a81548173ffffffffffffffffffffffffffffffffffffffff021916908373ffffffffffffffffffffffffffffffffffffffff160217905550505050600080819055506000600160006101000a81548173ffffffffffffffffffffffffffffffffffffffff021916908373ffffffffffffffffffffffffffffffffffffffff16021790555061072b565b600080541461048c576040517f08c379a000000000000000000000000000000000000000000000000000000000815260040161048390610ae9565b60405180910390fd5b60016000819055508373ffffffffffffffffffffffffffffffffffffffff163073ffffffffffffffffffffffffffffffffffffffff16146104cc57600080fd5b60008484846040516020016104e393929190610a54565b604051602081830303815290604052805190602001209050610505818361074a565b600160006101000a81548173ffffffffffffffffffffffffffffffffffffffff021916908373ffffffffffffffffffffffffffffffffffffffff1602179055508573ffffffffffffffffffffffffffffffffffffffff16600160009054906101000a900473ffffffffffffffffffffffffffffffffffffffff1673ffffffffffffffffffffffffffffffffffffffff161461059f57600080fd5b8260026000600160009054906101000a900473ffffffffffffffffffffffffffffffffffffffff1673ffffffffffffffffffffffffffffffffffffffff1673ffffffffffffffffffffffffffffffffffffffff168152602001908152602001600020600081548092919061061290610cbe565b919050551461062057600080fd5b6000808673ffffffffffffffffffffffffffffffffffffffff1634876040516106499190610a8d565b60006040518083038185875af1925050503d8060008114610686576040519150601f19603f3d011682016040523d82523d6000602084013e61068b565b606091505b509150915081801561069f57506000815110155b6106de576040517f08c379a00000000000000000000000000000000000000000000000000000000081526004016106d590610b09565b60405180910390fd5b6000600160006101000a81548173ffffffffffffffffffffffffffffffffffffffff021916908373ffffffffffffffffffffffffffffffffffffffff160217905550505050600080819055505b5050505050565b60026020528060005260406000206000915090505481565b6000806000806020850151925060408501519150606085015160001a9050601b8160ff16101561078457601b816107819190610bc1565b90505b601b8160ff161415801561079c5750601c8160ff1614155b156107ad5760009350505050610802565b600186828585604051600081526020016040526040516107d09493929190610aa4565b6020604051602081039080840390855afa1580156107f2573d6000803e3d6000fd5b5050506020604051035193505050505b92915050565b600061081b61081684610b69565b610b44565b90508281526020810184848401111561083757610836610d98565b5b610842848285610c4b565b509392505050565b60008135905061085981610e17565b92915050565b600082601f83011261087457610873610d93565b5b8135610884848260208601610808565b91505092915050565b60008135905061089c81610e2e565b92915050565b6000602082840312156108b8576108b7610da2565b5b60006108c68482850161084a565b91505092915050565b600080600080600060a086880312156108eb576108ea610da2565b5b60006108f98882890161084a565b955050602061090a8882890161084a565b945050604086013567ffffffffffffffff81111561092b5761092a610d9d565b5b6109378882890161085f565b93505060606109488882890161088d565b925050608086013567ffffffffffffffff81111561096957610968610d9d565b5b6109758882890161085f565b9150509295509295909350565b61099361098e82610bf8565b610d07565b82525050565b6109a281610c0a565b82525050565b60006109b382610b9a565b6109bd8185610ba5565b93506109cd818560208601610c5a565b80840191505092915050565b60006109e6601583610bb0565b91506109f182610dc5565b602082019050919050565b6000610a09601a83610bb0565b9150610a1482610dee565b602082019050919050565b610a2881610c34565b82525050565b610a3f610a3a82610c34565b610d2b565b82525050565b610a4e81610c3e565b82525050565b6000610a608286610982565b601482019150610a7082856109a8565b9150610a7c8284610a2e565b602082019150819050949350505050565b6000610a9982846109a8565b915081905092915050565b6000608082019050610ab96000830187610999565b610ac66020830186610a45565b610ad36040830185610999565b610ae06060830184610999565b95945050505050565b60006020820190508181036000830152610b02816109d9565b9050919050565b60006020820190508181036000830152610b22816109fc565b9050919050565b6000602082019050610b3e6000830184610a1f565b92915050565b6000610b4e610b5f565b9050610b5a8282610c8d565b919050565b6000604051905090565b600067ffffffffffffffff821115610b8457610b83610d64565b5b610b8d82610da7565b9050602081019050919050565b600081519050919050565b600081905092915050565b600082825260208201905092915050565b6000610bcc82610c3e565b9150610bd783610c3e565b92508260ff03821115610bed57610bec610d35565b5b828201905092915050565b6000610c0382610c14565b9050919050565b6000819050919050565b600073ffffffffffffffffffffffffffffffffffffffff82169050919050565b6000819050919050565b600060ff82169050919050565b82818337600083830152505050565b60005b83811015610c78578082015181840152602081019050610c5d565b83811115610c87576000848401525b50505050565b610c9682610da7565b810181811067ffffffffffffffff82111715610cb557610cb4610d64565b5b80604052505050565b6000610cc982610c34565b91507fffffffffffffffffffffffffffffffffffffffffffffffffffffffffffffffff821415610cfc57610cfb610d35565b5b600182019050919050565b6000610d1282610d19565b9050919050565b6000610d2482610db8565b9050919050565b6000819050919050565b7f4e487b7100000000000000000000000000000000000000000000000000000000600052601160045260246000fd5b7f4e487b7100000000000000000000000000000000000000000000000000000000600052604160045260246000fd5b600080fd5b600080fd5b600080fd5b600080fd5b6000601f19601f8301169050919050565b60008160601b9050919050565b7f4e6f6e5265656e7472616e743a205265656e7472790000000000000000000000600082015250565b7f4c6f736572506179733a207472616e73666572206661696c6564000000000000600082015250565b610e2081610bf8565b8114610e2b57600080fd5b50565b610e3781610c34565b8114610e4257600080fd5b5056fea264697066735822122034f897b2c153309f878ecfdb3ec5208d729f46a3e65f93d8642a30aac70b8f5e64736f6c63430008060033",
  "immutableReferences": {},
  "source": "// SPDX-License-Identifier: MIT\r\n\r\n/*\r\n * This contract shows a draft for a feeless transfer function.\r\n * This code is not tested and adapted from https://github.com/bitclave/Feeless.\r\n * Another option is to generate a frontend call to a `transferFrom` with the loser as sender,\r\n * which they would have to sign in MM.\r\n */\r\n\r\nimport { NonReentrant } from \"./NonReentrant.sol\";\r\n\r\npragma solidity 0.8.6;\r\n\r\ncontract LoserPays is NonReentrant {\r\n\r\n    address internal msgSender;\r\n    mapping(address => uint) public nonces;\r\n\r\n    modifier loserPays {\r\n        if (msgSender == address(0)) {\r\n            msgSender = msg.sender;\r\n            _;\r\n            msgSender = address(0);\r\n        } else {\r\n            _;\r\n        }\r\n    }\r\n\r\n    function feelessTransfer(address sender, address target, bytes memory data, uint256 nonce, bytes memory sig) public payable loserPays noReentry{\r\n        require(address(this) == target);\r\n        bytes32 hash = keccak256(abi.encodePacked(target, data, nonce));\r\n        msgSender = recover(hash, sig);\r\n        require(msgSender == sender);\r\n        require(nonces[msgSender]++ == nonce);\r\n        (bool success, bytes memory reply) = target.call{value: msg.value}(data);\r\n        require (success && reply.length >= 0, \"LoserPays: transfer failed\");\r\n        msgSender = address(0);\r\n    }\r\n\r\n    /**\r\n    * @dev Recovers signer address from a message by using the signature\r\n    * @param hash bytes32 message, the hash is the signed message. What is recovered is the signer address.\r\n    * @param signature bytes signature, the signature is generated using web3.eth.sign()\r\n    */\r\n    function recover(bytes32 hash, bytes memory signature) internal pure returns (address) {\r\n        bytes32 r;\r\n        bytes32 s;\r\n        uint8 v;\r\n\r\n        // Divide the signature in r, s and v variables with inline assembly.\r\n        assembly {\r\n            r := mload(add(signature, 0x20))\r\n            s := mload(add(signature, 0x40))\r\n            v := byte(0, mload(add(signature, 0x60)))\r\n        }\r\n\r\n        // Version of signature should be 27 or 28, but 0 and 1 are also possible versions\r\n        if (v < 27) {\r\n            v += 27;\r\n        }\r\n\r\n        // If the version is correct return the signer address\r\n        if (v != 27 && v != 28) {\r\n            return (address(0));\r\n        }\r\n        return ecrecover(hash, v, r, s);\r\n    }\r\n\r\n}\r\n",
  "sourcePath": "D:/Documents/Career/IT/BP/CoinFlip/contracts/LoserPays.sol",
  "compiler": {
    "name": "solc",
    "version": "0.8.6+commit.11564f7e.Emscripten.clang"
  },
  "schemaVersion": "3.4.1",
  "updatedAt": "2021-06-27T20:41:37.314Z",
  "devdoc": {
    "kind": "dev",
    "methods": {},
    "version": 1
  },
  "userdoc": {
    "kind": "user",
    "methods": {},
    "version": 1
  }
}